:020000040800F2
:10000000089300202902000831020008330200088A
:10001000350200083702000839020008000000001D
:100020000000000000000000000000003B0200088B
:100030003D020008000000003F020008AD7000080B
:10004000430200084302000843020008430200087C
:10005000430200084302000843020008430200086C
:10006000430200084302000843020008430200085C
:10007000430200084302000843020008430200084C
:10008000430200084302000843020008430200083C
:10009000430200084302000843020008430200082C
:1000A000430200084302000843020008430200081C
:1000B0004171000869710008857100084302000859
:1000C00043020008430200084302000843020008FC
:1000D0004302000839720008597200084302000800
:1000E00043020008430200084302000843020008DC
:1000F00043020008430200084302000843020008CC
:1001000043020008430200084302000843020008BB
:10011000F171000815720008A9710008CD7100087E
:10012000430200084302000843020008430200089B
:10013000430200084302000843020008430200088B
:10014000430200084302000843020008430200087B
:1001500043020008430200084302000879720008C5
:10016000430200084302000843020008430200085B
:100170004302000843020008430200080000000098
:10018000430200084302000800F002F800F03CF8C7
:100190000AA090E8000C82448344AAF10107DA45E2
:1001A00001D100F031F8AFF2090EBAE80F0013F0F8
:1001B000010F18BFFB1A43F0010318474C820000DF
:1001C0006C820000103A24BF78C878C1FAD8520770
:1001D00024BF30C830C144BF04680C6070470000C1
:1001E0000023002400250026103A28BF78C1FBD840
:1001F000520728BF30C148BF0B6070471FB508F0D9
:10020000FDF81FBD10B510BD00F031F81146FFF725
:10021000F5FF07F019FB00F04FF803B4FFF7F2FF0A
:1002200003BC00F057F80000094880470948004720
:10023000FEE7FEE7FEE7FEE7FEE7FEE7FEE7FEE796
:10024000FEE7FEE704480549054A064B70470000F3
:10025000DD70000889010008088D00200893002047
:10026000088F0020088F0020704770477047754640
:1002700000F02CF8AE4605006946534620F0070012
:10028000854618B020B5FFF7DDFFBDE820404FF0F0
:1002900000064FF000074FF000084FF0000B21F070
:1002A0000701AC46ACE8C009ACE8C009ACE8C0093D
:1002B000ACE8C0098D46704710B50446AFF3008026
:1002C0002046BDE81040FFF7A8BF00000048704777
:1002D000A88C002001491820ABBEFEE726000200D2
:1002E0007047000000B5FE48006800F4006050B997
:1002F0000121FC48006841F2C822104400F5E040AA
:1003000080F82C1609E00021F648006841F2C82266
:10031000104400F5E04080F82C16F148006800F425
:10032000806050B90121EF48006841F2C8221044B2
:1003300000F5E04080F82D1609E00021E94800684A
:1003400041F2C822104400F5E04080F82D16E44840
:10035000006800F4007050B90121E248006841F2E1
:10036000C822104400F5E04080F82E1609E0002174
:10037000DC48006841F2C822104400F5E04080F8F3
:100380002E16D748006800F4807050B90121D54876
:10039000006841F2C822104400F5E04080F82F16B2
:1003A00009E00021CF48006841F2C822104400F55E
:1003B000E04080F82F16CA48006800F0800050B96D
:1003C0000121C848006841F2C822104400F5E0400D
:1003D00080F8301609E00021C248006841F2C822C6
:1003E000104400F5E04080F83016BD48006800F089
:1003F000400050B90121BB48006841F2C8221044B6
:1004000000F5E04080F8311609E00021B5480068A9
:1004100041F2C822104400F5E04080F83116B2489D
:10042000006900F4004050B90121AE48006841F273
:10043000C822104400F5E04080F8321609E000219F
:10044000A848006841F2C822104400F5E04080F856
:100450003216A548006900F4804050B90121A14836
:10046000006841F2C822104400F5E04080F83316DD
:1004700009E000219B48006841F2C822104400F5C1
:10048000E04080F833169848006900F4005050B9F5
:1004900001219448006841F2C822104400F5E04070
:1004A00080F8341609E000218E48006841F2C82225
:1004B000104400F5E04080F834168B48006900F4E1
:1004C000805050B901218748006841F2C822104489
:1004D00000F5E04080F8351609E000218148006809
:1004E00041F2C822104400F5E04080F835167E48FD
:1004F000006900F4006050B901217A48006841F2B7
:10050000C822104400F5E04080F8361609E00021CA
:100510007448006841F2C822104400F5E04080F8B9
:1005200036167148006900F4806050B901216D48A9
:10053000006841F2C822104400F5E04080F8371608
:1005400009E000216748006841F2C822104400F524
:10055000E04080F837166548006900F4006060B933
:1005600001216048006841F2C822104400F5E040D3
:1005700080F8771506F0CAFE09E0002159480068A6
:1005800041F2C822104400F5E04080F87715574842
:10059000006900F4007060B901215248006841F21E
:1005A000C822104400F5E04080F8781506F0AEFE51
:1005B00009E000214B48006841F2C822104400F5D0
:1005C000E04080F878154948006900F4807060B90F
:1005D00001214448006841F2C822104400F5E0407F
:1005E00080F87A1506F092FE09E000213D48006887
:1005F00041F2C822104400F5E04080F87A153C48EA
:10060000006800F4005060B901213648006841F2EA
:10061000C822104400F5E04080F8791506F076FE17
:1006200009E000212F48006841F2C822104400F57B
:10063000E04080F879152D48006900F4806098B991
:1006400001212848006841F2C822104400F5E0402A
:1006500080F8741500202349096848F630121144C7
:10066000C87006F053FE09E000211E48006841F200
:10067000C822104400F5E04080F874151C4800685A
:1006800000F4004098B901211648006841F2C822E0
:10069000104400F5E04080F8751501201149096803
:1006A00048F630121144C87006F030FE09E000210F
:1006B0000C48006841F2C822104400F5E04080F880
:1006C00075150B48006800F48040F8B90121054811
:1006D000006841F2C822104400F5E0400AE0000042
:1006E000101C0240000000200010024000200240C8
:1006F0001008024080F876150220F849096848F68B
:1007000030121144C87006F001FE09E00021F348E0
:10071000006841F2C822104400F5E04080F87615E8
:10072000EF48006900F0400060B90121EB48006823
:1007300041F2C822104400F5E04080F87B1506F035
:10074000E5FD09E00021E548006841F2C8221044B7
:1007500000F5E04080F87B15E248006800F00200F8
:1007600060B90121DD48006841F2C822104400F55B
:10077000E04080F8BA1506F0C9FD09E00021D7482D
:10078000006841F2C822104400F5E04080F8BA1534
:10079000D348006900F4807060B90121CF48006837
:1007A00041F2C822104400F5E04080F8BB1506F085
:1007B000ADFD09E00021C948006841F2C82210449B
:1007C00000F5E04080F8BB15C748006800F48040A1
:1007D00060B90121C148006841F2C822104400F507
:1007E000E04080F8B81506F091FD09E00021BB4813
:1007F000006841F2C822104400F5E04080F8B815C6
:10080000B948006800F4005060B90121B34800689D
:1008100041F2C822104400F5E04080F8B91506F016
:1008200075FD09E00021AD48006841F2C82210447E
:1008300000F5E04080F8B915A948006900F0800093
:1008400060B90121A548006841F2C822104400F5B2
:10085000E04080F8BC1506F059FD09E000219F48F2
:10086000006841F2C822104400F5E04080F8BC1551
:100870009B48006900F4007060B901219748006846
:1008800041F2C822104400F5E04080F8BD1506F0A2
:100890003DFD09E000219148006841F2C822104462
:1008A00000F5E04080F8BD158E48006800F48070C7
:1008B00060B901218948006841F2C822104400F55E
:1008C000E04080F8231606F021FD09E0002183486E
:1008D000006841F2C822104400F5E04080F8231679
:1008E0008048006800F0800060B901217B48006802
:1008F00041F2C822104400F5E04080F8221606F0CC
:1009000005FD09E000217548006841F2C822104445
:1009100000F5E04080F822167248006800F02000E0
:1009200060B901216D48006841F2C822104400F509
:10093000E04080F8BE1506F0E9FC09E000216748B8
:10094000006841F2C822104400F5E04080F8BE156E
:100950006448006800F0400060B901215F48006809
:1009600041F2C822104400F5E04080F8BF1506F0BF
:10097000CDFC09E000215948006841F2C82210442A
:1009800000F5E04080F8BF155848006900F02000ED
:1009900060B901215148006841F2C822104400F5B5
:1009A000E04080F8C01506F0B1FC09E000214B489A
:1009B000006841F2C822104400F5E04080F8C015FC
:1009C0004A48006900F0100060B9012143480068FE
:1009D00041F2C822104400F5E04080F8C11506F04D
:1009E00095FC09E000213D48006841F2C82210440E
:1009F00000F5E04080F8C1153948006900F00100B9
:100A0000E8B93648006841F2C821084400F5E040E2
:100A100090F8D70598B901213048006841F2C82202
:100A2000104400F5E04080F8C2152C4800681044DE
:100A300000F5E04080F8D71506F068FC20E0284873
:100A4000006900F0010088B100212448006841F2EB
:100A5000C822104400F5E04080F8C2151F48006825
:100A6000104400F5E04080F8D71509E000211B484C
:100A7000006841F2C822104400F5E04080F8C21539
:100A80001B48006800F0800060B90121134800682D
:100A900041F2C822104400F5E04080F8C91506F084
:100AA00035FC09E000210D48006841F2C8221044DD
:100AB00000F5E04080F8C9150D48006800F02000FE
:100AC000C0B901210548006841F2C822104400F570
:100AD000E04080F8CA1506F019FC15E0000000207F
:100AE0000010024010180240101402400020024082
:100AF000100402400021EF48006841F2C82210446F
:100B000000F5E04080F8CA15EB48006800F04000AE
:100B100060B90121E748006841F2C822104400F59D
:100B2000E04080F8CB1506F0F1FB09E00021E14838
:100B3000006841F2C822104400F5E04080F8CB156F
:100B4000DD48006800F0100060B90121D948006854
:100B500041F2C822104400F5E04080F8CC1506F0C0
:100B6000D5FB09E00021D348006841F2C8221044B7
:100B700000F5E04080F8CC15CF48006800F4007024
:100B800060B90121CB48006841F2C822104400F549
:100B9000E04080F8C31506F0B9FB09E00021C54824
:100BA000006841F2C822104400F5E04080F8C31507
:100BB000C148006800F4807060B90121BD48006838
:100BC00041F2C822104400F5E04080F8C41506F058
:100BD0009DFB09E00021B748006841F2C82210449B
:100BE00000F5E04080F8C415B448006800F4004007
:100BF00050B90121AF48006841F2C822104400F505
:100C0000E04080F85C1609E00021AA48006841F243
:100C1000C822104400F5E04080F85C16A648006841
:100C200000F0080050B90121A248006841F2C82232
:100C3000104400F5E04080F85D1609E000219D4871
:100C4000006841F2C822104400F5E04080F85D16CB
:100C50009A48006800F00400E8B99648006841F23C
:100C6000C821084400F5E04090F8A70598B9012193
:100C70009048006841F2C822104400F5E04080F836
:100C8000A3158C480068104400F5E04080F8A715D3
:100C900006F03CFB20E08948006800F0040088B1C1
:100CA00000218448006841F2C822104400F5E04069
:100CB00080F8A3157F480068104400F5E04080F8F4
:100CC000A71509E000217B48006841F2C8221044C2
:100CD00000F5E04080F8A3157948006800F4004072
:100CE000E8B97448006841F2C821084400F5E040C2
:100CF00090F8A80598B901216E48006841F2C82211
:100D0000104400F5E04080F8A4156A4800681044DB
:100D100000F5E04080F8A81506F0F8FA20E06848F1
:100D2000006800F4004088B100216248006841F288
:100D3000C822104400F5E04080F8A4155D48006822
:100D4000104400F5E04080F8A81509E0002159485A
:100D5000006841F2C822104400F5E04080F8A41574
:100D60005648006800F0100028BB5248006841F265
:100D7000C821084400F5E04090F8A905D8B9012140
:100D80004C48006841F2C822104400F5E04080F869
:100D9000A515484800681146084400F5E04090F861
:100DA000A51544480068104400F5E04080F8A915F6
:100DB00006F0ACFA28E04148006800F01000C8B125
:100DC00000213C48006841F2C822104400F5E04090
:100DD00080F8A515374800681146084400F5E04042
:100DE00090F8A51533480068104400F5E04080F8FD
:100DF000A91509E000212F48006841F2C8221044DB
:100E000000F5E04080F8A5152C48006800F00800C7
:100E100028BB2848006841F2C821084400F5E0409A
:100E200090F8AA05D8B901212248006841F2C822E9
:100E3000104400F5E04080F8A6151E4800681146F1
:100E4000084400F5E04090F8A6151A4800681044E0
:100E500000F5E04080F8AA1506F058FA28E0174897
:100E6000006800F00800C8B100211248006841F293
:100E7000C822104400F5E04080F8A6150D4800682F
:100E80001146084400F5E04090F8A61509480068AE
:100E9000104400F5E04080F8AA1509E0002105485B
:100EA000006841F2C822104400F5E04080F8A61521
:100EB00000BD000000000020100402401018024095
:100EC000100C024010B540F24730F949886241F6F3
:100ED0005730C8620846C06840F00100C860084644
:100EE000006840F001000860362006F0D5F940F2B5
:100EF00047304FF08041886242F20F70C862084666
:100F0000C06840F00100C8600846006840F0010079
:100F100008601C2006F0C0F9E648E7490860E74889
:100F2000006800F58060091D0860FA20E249091F89
:100F30000860081F0068E2490843DF490839086073
:100F4000DC48DD4930310860DC48006800F2FC40D4
:100F5000091D0860FA20D8492C310860081F006874
:100F6000D7493F310843D44928310860D548006843
:100F700040F42010D34908600846C06840F4A0102F
:100F8000C8600846406A40F4EE61CE48416240F2D3
:100F9000D920C849091F88600846406940F0C00050
:100FA00048610846C06842F21C010843C149091F54
:100FB000C860252006F070F9C348C4490860BF48DE
:100FC000006800F2FA50C1499039C1F89400FA2043
:100FD000C1F88C00BD4808380068B9490843BB49CE
:100FE00008390860B848B9499039C1F8A800B34831
:100FF000006800F2F660B5491C310860FA20B34978
:101000009039C1F8A400B14810300068AC493F31B4
:101010000843AE499039C1F8A000AD48006840F4DB
:101020002050AB490860AA480C30006840F4A0503A
:10103000A7490C310860A6482030006840F0EE60F7
:10104000A349203108604FF4B6709F49091D08601C
:101050009D481030006840F0C0009B491031086086
:1010600099480830006842F21C010843964908314B
:101070000860262006F010F9964894499039886453
:101080008E48006800F6DC60C864FA2048640846B0
:10109000006C8B4908438D49903908648D488867F6
:1010A0008648006800F6D670C867FA204867084688
:1010B000006F83493F310843844990390867864867
:1010C000006840F420008449086083480C300068C0
:1010D00040F4A00080490C3108607F48406A40F429
:1010E00008417D48416240F68B007A49091D08603D
:1010F00078481030006840F0C00076491031086030
:1011000074480830006842F21C01084371490831F4
:101110000860342006F0C0F870486C499039886146
:10112000664800680C3041F2C401084467499039B0
:10113000C861FA204861084600696149084363496B
:10114000903908616548C1F8C0005C4800680C30FF
:1011500041F2BE1108445D4934310860FA205B4910
:101160009039C1F8BC0059482830006854493F31D3
:10117000084356499039C1F8B8005548006840F016
:1011800020005349086052480C30006840F01000BD
:101190004F490C3108605048006840F000704E49DB
:1011A00008604D480C30006840F080704A490C31AE
:1011B000086047482030006840F40060444920310E
:1011C00008604548406A40F400214348416240F2CB
:1011D000D9204249091F88600846406940F0C00094
:1011E00048610846C06842F21C0108433B49091F98
:1011F000C860352006F050F839482F494839086052
:101200002E48006800F2F470091D0860FA202A498F
:101210004C390860081F0068324908432649503994
:1012200008602F482449183108602448006800F5F8
:101230000F60091D0860FA201F4914310860081F5B
:10124000006828493F3108431B4910310860224893
:10125000006840F42040204908601F480C300068B6
:1012600040F4A0401C490C3108601B482030006845
:1012700040F0084018492031086040F2D920184950
:10128000091D086016481030006840F0C00014497D
:101290001031086012480830006842F21C0108430F
:1012A0000F4908310860472005F0F6FF10BD000027
:1012B0000010004004100140906402400000002033
:1012C0000104030800000240044400409060024012
:1012D000000C0240044C0040000802400450004052
:1012E000041401400104030AFA48006848F630116A
:1012F00008444078012806D1F748006880F400606F
:10130000F549086014E0F348006800F5004090F8E3
:101310003009012806D1F048006820F40060EE4949
:10132000086005E0EC48006840F40060EA490860A5
:10133000E848006848F63011084490F86000F52845
:101340000CD1E648006840F08000E4490860E248BB
:10135000006840F48060E04908606CE0DD480068A7
:1013600048F63011084490F86000F6280CD1DB48AC
:10137000006820F08000D9490860D748006840F430
:101380008060D549086056E0D248006848F63011C0
:10139000084490F86000F7280CD1D048006880F02D
:1013A0008000CE490860CC48006840F48060CA499B
:1013B000086040E0C748006848F63011084490F8DB
:1013C0006000F8280CD1C548006880F08000C3494F
:1013D0000860C148006880F48060BF4908602AE066
:1013E000BC48006848F63011084490F86000F928BD
:1013F0000CD1BA48006880F08000B8490860B6484F
:10140000006820F48060B449086014E0B1480068C6
:1014100048F63011084490F86000FA280BD1AF4824
:10142000006820F08000AD490860AB48006820F4F7
:101430008060A9490860A748006848F63011084450
:1014400090F84800012806D0A2480068084490F8A7
:101450003000012806D1A048006880F400709E4941
:10146000086005E09C48006840F400709A490860F4
:101470009848006848F6301108444079012806D1A0
:101480009748406980F010009549486105E094480C
:10149000406940F01000924948618E48006848F663
:1014A000301108448079012806D18D48406980F0C8
:1014B00004008B49486105E08948406940F0040018
:1014C000874948618348006848F630110844C0796C
:1014D000012806D18248406980F020008049486197
:1014E00005E07F48406940F020007D494861794827
:1014F000006848F630110844007A012806D178487F
:10150000406980F008007649486105E07448406908
:1015100040F00800724948616E48006848F6301192
:1015200008440079012810D16B48006820F48040FD
:10153000694908600846006820F4005008600846C1
:10154000006820F48050086061E06248006848F656
:1015500030110844C07880B95F48006820F48040AA
:101560005D4908600846006840F40050086008467D
:10157000006840F48050086049E05648006848F62A
:1015800030110844C078012810D15348006840F455
:101590008040514908600846006820F40050086007
:1015A0000846006840F48050086030E04948006810
:1015B00048F630110844C078022810D14648006827
:1015C00040F48040444908600846006840F40050F8
:1015D00008600846006820F48050086017E03D4825
:1015E000006848F630110844C07803280FD13A4803
:1015F000006880F48040384908600846006880F43C
:10160000005008600846006880F480500860314847
:10161000006848F630110844407A012806D1314864
:10162000406980F002002F49486105E02D4840697B
:1016300040F002002B4948612648006848F6301106
:101640000844807A012806D12748006880F40040C9
:101650002549086005E02448006840F4004022491C
:1016600008601C48006848F630110844C07A012818
:1016700006D11D48006880F400501B49086005E051
:101680001948006840F40050174908601148006884
:1016900048F630110844007B012806D11148406902
:1016A00080F004000F49486105E00E48406940F0B1
:1016B00004000C4948610748006848F630110844A6
:1016C000407B012812D10748406980F0010005499C
:1016D000486111E00000002014180240140C024080
:1016E0000010024000200240141C024018484069CB
:1016F00040F00100164948611648006848F630116C
:101700000844807B012806D11348006880F480409B
:101710001149086005E01048006840F480400E4917
:1017200008600C48006848F630110844C07B012866
:1017300006D10748406980F008000549486105E086
:101740000348406940F008000149486170470000C3
:101750000020024000000020141C02402DE9F04748
:101760002DED028B2F48006841F2C821084400F596
:10177000E84090ED481BB0EE410AF0EE610A53ECF0
:10178000102B9FED291B51EC110B06F019FC41ECBD
:10179000180B06F0BBFA05464FF4FA6677004FF4D3
:1017A0007A682048006800F6EE14FA21204603F01B
:1017B00051FF80202070412060703816A070380CD6
:1017C000E070380A207167713016A071300CE0713A
:1017D000300A207266724FEA2860A0724FEA184001
:1017E000E0724FEA1820207384F80D80280EA07351
:1017F000280CE073280A207465740120A07413215A
:10180000204605F095FD81464FEA2920E07484F8D2
:10181000149015210348006880F8E91ABDEC028B8A
:10182000BDE8F0870000002000000000008046C0F6
:1018300070B52DED028B4948006800F10C04254677
:10184000FA21284603F006FF9B20287001206870CB
:101850004248006841F2C821084400F5E84090ED94
:101860004E1BB0EE410AF0EE610A51EC100B06F08F
:101870004DFAA8703948006841F2C821084400F5C3
:10188000E84090ED541BB0EE410AF0EE610A51ECD5
:10189000100B06F03BFAE8703048006841F2C821AE
:1018A000084400F5E84090ED401BB0EE410AF0EE30
:1018B000610A51EC100B05F0D4FF41EC180B06F057
:1018C00025FA28712548006841F2C821084400F52E
:1018D000EA4090ED021BB0EE410AF0EE610A51ECD5
:1018E000100B06F013FA68711C48006841F2C82119
:1018F000084400F5E84090ED441BB0EE410AF0EEDC
:10190000610A51EC100B06F001FAA8711348006847
:1019100041F2C821084447F21051084490ED021BDF
:10192000B0EE410AF0EE610A51EC100B06F0EEF950
:10193000E87194F8F80128720921284605F0F8FCAE
:10194000064630126872AE720B2084F8FB0001204C
:1019500084F8FA00BDEC028B70BD0000000000208E
:1019600070B52DED028BCB48006800F20625C94802
:10197000006800F20624FA21204603F06BFE9B204B
:10198000207002206070C348006841F2C8210844FA
:1019900000F5E04090F82C06012862D0BD480068B0
:1019A000084400F5E04090F82D06012859D0B948C8
:1019B0000068084400F5E04090F82E06012850D059
:1019C000B4480068084400F5E04090F82F0601286C
:1019D00047D0B0480068084400F5E04090F8300671
:1019E00001283ED0AB480068084400F5E04090F87C
:1019F0003106012835D0A7480068084400F5E040CA
:101A000090F8320601282CD0A2480068084400F55E
:101A1000E04090F83306012823D09E48006808442F
:101A200000F5E04090F8340601281AD09948006883
:101A3000084400F5E04090F83506012811D095489B
:101A40000068084400F5E04090F83606012808D008
:101A500090480068084400F5E04090F837060128F7
:101A600036D18C48006841F2C821084400F5E040B6
:101A700090F86E054042A07086480068084400F562
:101A8000E04090F86F054042E070824800680844EA
:101A900000F5E04090F87005404220717D480068F4
:101AA000084400F5E04090F87105607179480068DD
:101AB000084400F5E04090F872054042A071754876
:101AC0000068084400F5E04090F87305E071B4E068
:101AD0007048006848F630110844C078A8BB6D48CB
:101AE000006841F2C821084400F5E04090F869051B
:101AF0004042A07067480068084400F5E04090F854
:101B000068054042E07063480068084400F5E04022
:101B100090F86A05404220715E480068084400F56C
:101B2000E04090F86C0560715A480068084400F580
:101B3000E04090F86B05A07156480068084400F535
:101B4000E04090F86D05E07177E0FFE751480068EC
:101B500048F630110844C078012833D14D48006858
:101B600041F2C821084400F5E04090F86905404280
:101B7000A07048480068084400F5E04090F8680507
:101B8000E07044480068084400F5E04090F86A05B9
:101B9000207140480068084400F5E04090F86C056A
:101BA00060713C480068084400F5E04090F86B051F
:101BB000A07138480068084400F5E04090F86D05D1
:101BC000E0713AE03348006848F630110844C078C4
:101BD000022832D12F48006841F2C821084400F59C
:101BE000E04090F869054042A0702A480068084427
:101BF00000F5E04090F86805E07026480068084469
:101C000000F5E04090F86A05207122480068084419
:101C100000F5E04090F86C0560711E4800680844CB
:101C200000F5E04090F86B05A0711A480068084480
:101C300000F5E04090F86D05E0711648006841F24B
:101C4000C821084400F5E84090ED4C1BB0EE410A75
:101C5000F0EE610A51EC100B05F003FE41EC180B9D
:101C600006F054F8207295F8F801607295F8F901C1
:101C7000A0720B21204605F05BFB06463012E07295
:101C800026730D2085F8FB00012085F8FA00BDECD5
:101C9000028B70BD0000002010B5FA215648006884
:101CA00000F2FC4003F0D6FCFA215348006800F231
:101CB000F66003F0CFFCFA214F48006800F50F6092
:101CC00003F0C8FCFA214C48006800F6E25003F02B
:101CD000C1FC4A484069C0F1FA00C4B2002031E0BA
:101CE000454909680C3141F2C40211440A5C424979
:101CF000096801F2FC410A543F4909680C3141F27C
:101D0000C40211440A5C3C49096801F2F6610A54B4
:101D1000394909680C3141F2C40211440A5C364960
:101D2000096801F50F610A54334909680C3141F221
:101D3000C40211440A5C3049096801F6E2510A54B0
:101D4000411CC8B2A042CBDB2C48006920F0010046
:101D50002A4908610846806840F0200088600846EB
:101D6000006940F0010008612548006820F001008A
:101D700023490860081D04602148AC38006840F021
:101D800000601F49AC3908601D48006840F0010040
:101D90001B4908601948A030006820F0010017496D
:101DA000C1F8A0000846C0F8A440C06840F4001084
:101DB000C8600846D0F8A00040F00100C1F8A000BB
:101DC0000F481838006820F001000D4918390860E4
:101DD000081D04600A48AC38006840F40010084947
:101DE000AC39086006481838006840F00100044922
:101DF0001839086010BD000000000020006002409B
:101E0000B864024010B5FA215248006800F2FC4064
:101E100003F020FCFA214F48006800F2F66003F05E
:101E200019FCFA214B48006800F50F6003F012FC22
:101E3000FA214848006800F6E25003F00BFC4648DF
:101E4000406CC0F1FA00C4B2002029E041490968A1
:101E500001F6DC610A5C3F49096801F2FC410A5461
:101E60003C49096801F6DC610A5C3A49096801F2FB
:101E7000F6610A543749096801F6DC610A5C3549A4
:101E8000096801F50F610A543249096801F6DC61FD
:101E90000A5C3049096801F6E2510A54411CC8B293
:101EA000A042D3DB2C48006C20F001002A490864D2
:101EB0000846806840F4001088600846006C40F0D6
:101EC000010008642548006820F0010023490860EB
:101ED000081D04602148AC38006840F000601F49CC
:101EE000AC3908601D48006840F001001B490860DB
:101EF0001948A030006820F001001749C1F8A0007F
:101F00000846C0F8A440C06840F40010C860084605
:101F1000D0F8A00040F00100C1F8A0000F48183828
:101F2000006820F001000D4918390860081D0460A0
:101F30000A48AC38006840F400100849AC39086021
:101F400006481838006840F0010004491839086054
:101F500010BD00000000002000600240B864024094
:101F600001211348006880F8FA1412480068C0F193
:101F7000FA00C1B20E48006880F8FB140D48001F3B
:101F8000006820F001000B49091F086009488038EB
:101F9000006840F400600749803908600548001F68
:101FA000006840F001000349091F08607047000005
:101FB000000000208C64024001211248006880F873
:101FC000F41611480068C0F1FA00C1B20D4800686B
:101FD00080F8F5160C488C38D0F8880020F0010005
:101FE00009498C39C1F888000846C06840F400608F
:101FF000C8600846D0F8880040F001000249091F77
:1020000008607047000000208C60024001211348E6
:10201000006880F8EE1812480068C0F1FA00C1B2FA
:102020000E48006880F8EF180D48001F006820F087
:1020300001000B49091F086009483C38006840F45A
:10204000001007493C3908600548001F006840F04F
:1020500001000349091F08607047000000000020CC
:10206000446402402DE9F0412DED048BFE480068E8
:1020700000F6E2540025002620789B2874D1607871
:102080000E2872D10521204605F052F90546A079A7
:10209000617900EB012086B2B542EFD1A07800F063
:1020A000010038B10120F049096848F630121144A6
:1020B000487006E00020EC49096848F630121144E7
:1020C0004870A07800F00200022807D10121E648FC
:1020D000006800F5004080F8301906E00021E24871
:1020E000006800F5004080F83019A07800F00C007E
:1020F00038B90020DC49096848F63012114488706C
:1021000025E0A07800F00C00042807D10120D64972
:10211000096848F630121144887018E0A07800F081
:102120000C00082807D10220CF49096848F6301270
:10213000114488700BE0A07800F00C000C2806D148
:102140000320C949096848F6301211448870A07804
:1021500000F01000102809D10120C349096848F691
:1021600030121144487108E0B1E25DE00020BE4940
:10217000096848F6301211444871A07800F0200038
:10218000202807D10121B848006848F630121044D1
:10219000817106E00021B448006848F6301210440E
:1021A0008171A07800F04000402807D10121AE489D
:1021B000006848F630121044C17106E00021AA48B8
:1021C000006848F630121044C171A07800F0800019
:1021D000802807D10121A448006848F63012104435
:1021E000017206E00021A048006848F63012104451
:1021F0000172E07805F04FFE41EC190B9FED9B0B4F
:1022000053EC102B05F0EEFB41EC180B9FED990BF6
:1022100053EC102B05F0D4FE934A126848F63013A5
:102220001A44C2E91A01B7E3607809287DD1132165
:10223000204605F07DF80546207DE17C00EB01207D
:1022400086B2B542EFD1E178A27801EB022108B263
:1022500005F0B9FD9FED890B53EC102B05F0C2FB87
:10226000814A126848F630131A44C2E906016179BE
:10227000227901EB022108B205F0A5FD9FED7F0B4D
:1022800053EC102B05F0AEFB774A126848F630137A
:102290001A44C2E90801E179A27901EB022108B2EE
:1022A00005F091FD9FED750B53EC102B05F09AFB9B
:1022B0006D4A126848F630131A44C2E90E01207ABA
:1022C0004FF0000C677A4FEA0C6141EA17213F0694
:1022D0001CEB070C40EB0107A17A0020000440EA48
:1022E000114009041CEB010C4741E17A0020000277
:1022F00040EA116009021CEB010C7841217B1CEBC8
:10230000010240F10001104605F074FD9FED5D0BE8
:1023100053EC102B05F066FB534A126848F6301355
:102320001A44C2E91401607B00E0C2E04FF0000CE7
:10233000A77B4FEA0C6141EA17213F061CEB070C13
:1023400040EB0107E17B0020000440EA11404FEA26
:1023500001481CEB080C47EB0001207C00273F02E2
:1023600047EA106700021CEB000C7941607C1CEB13
:10237000000241F10001104605F0A0FD9FED410B68
:1023800053EC102B05F02EFB374A126848F6301339
:102390001A44C2E91601A07C334909681A4611445F
:1023A00081F86000304800681146084490ED101B29
:1023B000B0EE410AF0EE610A04F088FFB0EE408A08
:1023C000F0EE608A2848006848F63011084490ED25
:1023D0000E1BB0EE410AF0EE610A04F077FFB0EE9A
:1023E000409AF0EE609A53EC182B51EC190B05F063
:1023F000E5FE08D201201C49096848F63012114454
:1024000081F8480007E000201749096848F63012B3
:10241000114481F848001448006848F63011084417
:1024200090ED0A1BB0EE410AF0EE610A04F04EFF97
:10243000B0EE408AF0EE608A0B48006848F6301132
:10244000084490ED081BB0EE410AF0EE610A04F07A
:102450003DFFB0EE409AF0EE609A53EC182B51EC31
:10246000190B05F0ABFE11E0000000200000000099
:10247000000070408B780E0CF0F620400000000049
:102480000000244000000000D012634108D2012067
:10249000FE49096848F63012114481F830007BE2A9
:1024A0000020FA49096848F63012114481F83000DA
:1024B00072E260780F287DD10521204604F038FFB4
:1024C0000546A079617900EB012086B2B542E6D1DC
:1024D000A07800F0030048B9EC48006848F63011D5
:1024E0000844C07810B104F011FF2EE0A07800F08D
:1024F000030001280AD1E548006848F63011084475
:10250000C078012802D004F001FF1EE0A07800F09E
:10251000030002280AD1DD48006848F6301108445B
:10252000C078022802D004F0F1FE0EE0A07800F09E
:102530000300032809D1D548006848F63011084443
:10254000C078032801D004F0E1FEA07800F0030079
:1025500038B90020CD49096848F630121144C870D6
:1025600022E0A07800F00300012806D1C7490968DD
:1025700048F630121144C87016E0A07800F003004D
:10258000022806D1C149096848F630121144C870C2
:102590000AE0A07800F00300032805D1BB490968D0
:1025A00048F630121144C870A07800F010001028CE
:1025B00009D100E094E00120B449096848F63012DE
:1025C0001144087106E00020B049096848F630124D
:1025D00011440871E07800F0010038B10120AB49E6
:1025E000096848F630121144487206E00020A749F5
:1025F000096848F6301211444872E07800F0020091
:1026000038B10121A148006848F6301210448172A7
:1026100006E000219D48006848F63012104481729F
:10262000E07800F0040038B101219848006848F6CD
:1026300030121044C17206E000219448006848F648
:1026400030121044C172E07800F0080038B1012166
:102650008E48006848F630121044017306E00021ED
:102660008A48006848F6301210440173E07800F0A0
:10267000100038B101218548006848F63012104436
:10268000417306E000218148006848F6301210448A
:102690004173E07800F0200038B101217B480068E8
:1026A00048F630121044817306E000217748006834
:1026B00048F6301210448173E07800F0400038B1E1
:1026C00001217248006848F630121044C17363E17A
:1026D00000216E48006848F630121044C1735BE177
:1026E00060781028F3D10521204604F021FE05462C
:1026F000A079617900EB012086B2B542E7D1A078DC
:1027000000F0010040B101206049096848F630122C
:10271000114481F8700007E000205C49096848F620
:102720003012114481F87000A07800F002000228F5
:1027300008D101215548006848F63012104480F84D
:10274000711007E000215148006848F6301210442B
:1027500080F87110A07800F00400042808D101214D
:102760004A48006848F63012104480F8721007E0BA
:1027700000214648006848F63012104480F8721074
:10278000A07800F00800082808D101213F4800681F
:1027900048F63012104480F8731007E000213B48DF
:1027A000006848F63012104480F87310A07800F0EA
:1027B0001000102808D101203449096848F6301269
:1027C000114481F8740007E000203049096848F698
:1027D0003012114481F87400A07800F02000202805
:1027E00008D101202949096848F63012114481F8BE
:1027F000750007E000202549096848F630121144A9
:1028000081F87500A07800F04000402808D1012030
:102810001E49096848F63012114481F8760015E027
:10282000A07800F08000802808D1022017490968AC
:1028300048F63012114481F8760007E00020134971
:10284000096848F63012114481F87600E07800F00B
:10285000010040B101200D49096848F630121144C9
:1028600081F8770007E000200849096848F630122F
:10287000114481F87700E07800F0060058B9002094
:102880000249096848F63012114401E000000020B6
:1028900081F8780028E0E07800F00600022808D1EE
:1028A00001203F49096848F63012114481F8780048
:1028B0001AE0E07800F00600042808D10220384928
:1028C000096848F63012114481F878000CE0E0788D
:1028D00000F00600062807D103203149096848F6B0
:1028E0003012114481F87800E07800F010001028D0
:1028F00008D101202A49096848F63012114481F8AC
:10290000790007E000202649096848F63012114492
:1029100081F87900E07800F02000202808D101211A
:102920001F48006848F63012104480F87A1007E01B
:1029300000211B48006848F63012104480F87A10D5
:10294000E07800F04000402808D1012114480068D8
:1029500048F63012104480F87B1007E00021104840
:10296000006848F63012104480F87B10E07800F0E0
:102970008000802808D101210948006848F63012FB
:10298000104480F87C1007E000210548006848F6F4
:102990003012104480F87C10BDEC048BBDE8F0814F
:1029A0000000002010B5FEF743FFFEF7D9FFFEF749
:1029B000D5FE002493E04C4800680C3000F58050B0
:1029C00090F8B912484800680C3000F5805090F833
:1029D000B902401CC2B2444800680C3000F5805077
:1029E00080F8B922072907DB00213F4800680C3036
:1029F00000F5805080F8B9123B4800680C3000F5B3
:102A0000805090F8B90200EB4001C1EB002136483C
:102A100000680C3000EB410090F8FA0001285BD10F
:102A2000314909680C3101F5805191F8B91201EB77
:102A30004102C2EB01222C4909680C3101EB420032
:102A400003F0BEF8284909680C3101F5805191F86E
:102A5000B91201EB4102C2EB0122234909680C3192
:102A600001EB420003F076F800211F4800680C30AB
:102A700000F5805090F8B90200EB4002C2EB002252
:102A8000194800680C3000EB420080F8FA10164834
:102A900000680C3000F5805090F8B90200EB40025D
:102AA000C2EB0022104800680C3000EB420080F8B6
:102AB000F8110D4800680C3000F5805090F8B9020C
:102AC00000EB4002C2EB0022074800680C3000EB2C
:102AD000420080F8F91105E000BF601CC4B2072C69
:102AE000FFF669AF00BF10BD0000002000B5B3B015
:102AF00000200B9010E000212AAA0B9842F8201029
:102B000022AA0B9842F820101AAA0B9842F820101B
:102B10000B98401CC0B20B900B980828EBDB0020F0
:102B200019900B9020E000200A9016E02AA90A983C
:102B300051F820201998411C1991FE49096841F269
:102B4000C823194431F8100011182AAA0A9842F82B
:102B500020100A98401CC0B20A900A980828E5DBA9
:102B60000B98401C80B20B900B98B0F5167FDADB07
:102B700000200B9024E02AA90B9851F82000079020
:102B800005F089F99FEDEC0B53EC102BCDE9080112
:102B90009DED080B51EC100B04F024FF0A46014692
:102BA000E448006841F2C823184447F24043034414
:102BB0000B9803EBC00006C00B98401CC0B20B90F2
:102BC0000B980828D7DB002019900B9022E00020FA
:102BD0000A9018E022A90A9851F820201998411C5F
:102BE0001991D449096841F2C823194401F51651D5
:102BF00031F81000111822AA0A9842F820100A98F9
:102C0000401CC0B20A900A980828E3DB0B98401CCD
:102C100080B20B900B98B0F5167FD8DB00200B909C
:102C200021E022A90B9851F82000079005F033F914
:102C30009FEDC10B53EC102BCDE908019DED080B66
:102C400051EC100B04F0CEFEBA4A126841F2C823D0
:102C50001A4402F5E9420B9B02EBC30203C20B9834
:102C6000401CC0B20B900B980828DADB00201990AA
:102C70000B9022E000200A9018E01AA90A9851F857
:102C800020201998411C1991AA49096841F2C823CA
:102C9000194401F5964131F8100011181AAA0A9842
:102CA00042F820100A98401CC0B20A900A980828DE
:102CB000E3DB0B98401C80B20B900B98B0F5167FAD
:102CC000D8DB00200B9024E01AA90B9851F82000C3
:102CD000079005F0E0F89FED980B53EC102BCDE931
:102CE00008019DED080B51EC100B04F07BFE0A4629
:102CF00001469048006841F2C823184447F2C04397
:102D000003440B9803EBC00006C00B98401CC0B2F4
:102D10000B900B980828D7DB002018900B9020E030
:102D20008448006841F2C821084447F24041014408
:102D30000B9801EBC00090ED000B1898411CC9B234
:102D400018917C49096841F2C822114447F24012A7
:102D5000114401EBC00080ED000B0B98401CC0B289
:102D60000B900B980828DBDB00200B901FE07148CC
:102D7000006841F2C821084400F5E9400B9900EBD6
:102D8000C10090ED000B1898411CC9B21891694917
:102D9000096841F2C822114447F24012114401EB84
:102DA000C00080ED000B0B98401CC0B20B900B983C
:102DB0000828DCDB00200B9020E05E48016841F22F
:102DC000C820084447F2C04101440B9801EBC00001
:102DD00090ED000B1898411CC9B2189155490A682A
:102DE00041F2C821114447F24012114401EBC000E6
:102DF00080ED000B0B98401CC0B20B900B9808287C
:102E0000DBDB00200B905DE14A48006841F2C821FD
:102E1000084447F2C02101440B9801EBC00090ED3B
:102E2000000B8DED020B4348016841F2C8200844B5
:102E300000F5E7400B9900EBC10090ED000B8DED24
:102E4000000B9DED020B53EC102B9DED000B51EC94
:102E5000100B05F0E9F9CDE908013648016841F2A7
:102E6000C820084400F5E4400B9900EBC10090ED48
:102E7000000B8DED020B2F48006841F2C821084479
:102E800047F2C02101440B9801EBC00090ED000B0C
:102E90008DED000B9DED020B53EC102B9DED000B07
:102EA00051EC100B05F0C0F9CDE90601214801688D
:102EB00041F2C820084447F2C02101440B9801EBBD
:102EC000C00090ED000B8DED020B1A48016841F235
:102ED000C820084447F2401101440B9801EBC000A0
:102EE00090ED000B8DED000B9DED020B53EC102BC4
:102EF0009DED000B51EC100B05F096F9CDE90401A6
:102F00000C48016841F2C820084447F2C02101443E
:102F10000B9801EBC00090ED000B8DED020B054806
:102F2000006841F2C821014447F2401001440B9867
:102F300006E00000000000200000000000C0824009
:102F400001EBC00090ED000B8DED000B9DED020B31
:102F500053EC102B9DED000B51EC100B05F02EF9EE
:102F600018D29DED080B53EC102B9DED040B51EC8A
:102F7000100B04F037FD0A460146FE48006841F296
:102F8000C823184447F2401303440B9803EBC000D6
:102F900006C040E0F748006841F2C821014447F20A
:102FA000C02001440B9801EBC00090ED000B8DEDAB
:102FB000020BF048006841F2C821084447F2401172
:102FC00001440B9801EBC00090ED000B8DED000B60
:102FD0009DED020B53EC102B9DED000B51EC100BF3
:102FE00004F0B2FF17D29DED060B53EC102B9DEDB4
:102FF000040B51EC100B04F0F5FC0A460146DD48C9
:10300000006841F2C823184447F2401303440B9868
:1030100003EBC00006C0D748006841F2C82108444D
:1030200047F2401101440B9801EBC00090ED000BFA
:103030008DED020B9FEDD00B53EC102B9DED020B91
:1030400051EC100B05F0BAF80FD29FEDCB0BC9482D
:10305000006841F2C821084447F2401101440B982E
:1030600001EBC00080ED000B28E0C248006841F28F
:10307000C821084447F2401101440B9801EBC000FD
:1030800090ED000B8DED020B9FEDBD0B53EC102B63
:103090009DED020B51EC100B04F056FF0ED29FED8C
:1030A000B80BB448006841F2C821084447F2401107
:1030B00001440B9801EBC00080ED000B0B98401C05
:1030C000C0B20B900B981828FFF69EAEA948006876
:1030D00041F2C821084400F5E04090ED200B8DED51
:1030E000060B9DED060B53EC102B9FEDA70B51EC3F
:1030F000100B04F0C3FBCDE908019E48006841F2C3
:10310000C821084400F5E04090ED500B8DED060B12
:103110009DED060B53EC102B9DED080B51EC100BA5
:1031200004F04EFFCDE90A019DED0A0B51EC100BA6
:1031300004F0ECFD41B28F48006841F2C82210440F
:1031400000F5E04080F868158A4800681146084498
:1031500000F5E04090F96805099004F034FECDE9EF
:103160000A018448006841F2C821084400F5E040A3
:1031700090ED200B8DED080B9DED080B53EC102B03
:103180009DED0A0B51EC100B05F018F835D279487B
:10319000006841F2C821084400F5E04090F9680554
:1031A000079004F010FECDE908017248006841F272
:1031B000C821084400F5E04090ED200B8DED060B92
:1031C0009DED060B53EC102B9DED080B51EC100BF5
:1031D00005F02AF8CDE90A019DED0A0B51EC100B20
:1031E00004F094FD41B26348006841F2C8221044E3
:1031F00000F5E04080F868156BE05E48006841F239
:10320000C821084400F5E04090ED200B8DED060B41
:103210009DED060B51EC100B04F023FBCDE90A01E8
:103220005448006841F2C821084400F5E04090F994
:103230006805079004F0C7FDCDE908019DED0A0B74
:1032400053EC102B9DED080B51EC100B04F07CFEA1
:1032500035D24848006841F2C821084400F5E040F2
:1032600090F96805079004F0AEFDCDE908014148EA
:10327000006841F2C821084400F5E04090ED200BC1
:103280008DED060B9DED060B53EC102B9DED080B01
:1032900051EC100B04F0F2FACDE90A019DED0A0B96
:1032A00051EC100B04F032FD41B23248006841F29B
:1032B000C822104400F5E04080F8681509E00021BC
:1032C0002C48006841F2C822104400F5E04080F824
:1032D00068152848006841F2C821084400F5E1401B
:1032E00090ED020B8DED060B9DED060B53EC102BB4
:1032F0009FED250B51EC100B04F0C0FACDE908014D
:103300001C48006841F2C821084447F240110844B3
:1033100090ED020B8DED060B9DED060B53EC102B83
:103320009DED080B51EC100B04F04AFECDE90A01AB
:103330009DED0A0B51EC100B04F0E8FC41B20D4876
:10334000006841F2C822104400F5E04080F8691599
:10335000084800681146084400F5E04090F9690506
:10336000099004F030FDCDE90A010248006841F2FD
:10337000C8210DE000000020000000000000F03F28
:10338000000000000000F0BF0000000000005940F5
:10339000084400F5E14090ED020B8DED080B9DED2A
:1033A000080B53EC102B9DED0A0B51EC100B04F0A5
:1033B00005FF35D2FE48006841F2C821084400F5F7
:1033C000E04090F96905079004F0FDFCCDE90801A3
:1033D000F748006841F2C821084400F5E14090ED4B
:1033E000020B8DED060B9DED060B53EC102B9DEDA6
:1033F000080B51EC100B04F017FFCDE90A019DED0D
:103400000A0B51EC100B04F081FC41B2E848006853
:1034100041F2C822104400F5E04080F869156BE0E5
:10342000E348006841F2C821084400F5E14090ED0E
:10343000020B8DED060B9DED060B51EC100B04F00D
:1034400010FACDE90A01DA48006841F2C8210844BF
:1034500000F5E04090F96905079004F0B4FCCDE96F
:1034600008019DED0A0B53EC102B9DED080B51EC60
:10347000100B04F069FD35D2CD48006841F2C82137
:10348000084400F5E04090F96905079004F09BFCC2
:10349000CDE90801C648006841F2C821084400F59A
:1034A000E14090ED020B8DED060B9DED060B53EC0C
:1034B000102B9DED080B51EC100B04F0DFF9CDE95A
:1034C0000A019DED0A0B51EC100B04F01FFC41B2F8
:1034D000B748006841F2C822104400F5E04080F887
:1034E000691509E00021B248006841F2C822104481
:1034F00000F5E04080F86915AD48006841F2C82148
:10350000084400F5E14090ED040B8DED060B9DEDB8
:10351000060B53EC102B1FED640B51EC100B04F059
:10352000ADF9CDE90801A248006841F2C82108447C
:1035300047F24011084490ED040B8DED060B9DED14
:10354000060B53EC102B9DED080B51EC100B04F007
:1035500037FDCDE90A019DED0A0B51EC100B04F08B
:10356000D5FB41B29248006841F2C822104400F5F0
:10357000E04080F86A158E4800681146084400F55E
:10358000E04090F96A05099004F01DFCCDE90A01BC
:103590008748006841F2C821084400F5E14090EDF9
:1035A000040B8DED080B9DED080B53EC102B9DEDDE
:1035B0000A0B51EC100B04F001FE35D27C48006878
:1035C00041F2C821084400F5E04090F96A050790EF
:1035D00004F0F9FBCDE908017548006841F2C82103
:1035E000084400F5E14090ED040B8DED060B9DEDD8
:1035F000060B53EC102B9DED080B51EC100B04F057
:1036000013FECDE90A019DED0A0B51EC100B04F0FD
:103610007DFB41B26648006841F2C822104400F5C3
:10362000E04080F86A156BE06148006841F2C8210B
:10363000084400F5E14090ED040B8DED060B9DED87
:10364000060B51EC100B04F00CF9CDE90A015848B7
:10365000006841F2C821084400F5E04090F96A058D
:10366000079004F0B0FBCDE908019DED0A0B53EC87
:10367000102B9DED080B51EC100B04F065FC35D2BE
:103680004B48006841F2C821084400F5E04090F939
:103690006A05079004F097FBCDE9080144480068EB
:1036A00041F2C821084400F5E14090ED040B8DED96
:1036B000060B9DED060B53EC102B9DED080B51EC0A
:1036C000100B04F0DBF8CDE90A019DED0A0B51EC7B
:1036D000100B04F01BFB41B23548006841F2C822D0
:1036E000104400F5E04080F86A1509E000213048F8
:1036F000006841F2C822104400F5E04080F86A15E5
:103700002B48006841F2C821084400F5E14090EDE3
:10371000060B8DED060B9DED060B53EC102B1FEDEC
:10372000E60B51EC100B04F0A9F8CDE90801204894
:10373000006841F2C821084447F24011084490ED66
:10374000060B8DED060B9DED060B53EC102B9DED3E
:10375000080B51EC100B04F033FCCDE90A019DED90
:103760000A0B51EC100B04F0D1FA41B2104800687A
:1037700041F2C822104400F5E04080F86B150C4877
:1037800000681146084400F5E04090F96B05099087
:1037900004F019FBCDE90A010548006841F2C8218F
:1037A000084400F5E14090ED060B8DED080B01E0BB
:1037B000000000209DED080B53EC102B9DED0A0B33
:1037C00051EC100B04F0FAFC35D2FE48006841F2CF
:1037D000C821084400F5E04090F96B05079004F01B
:1037E000F2FACDE90801F748006841F2C82108441F
:1037F00000F5E14090ED060B8DED060B9DED060BFF
:1038000053EC102B9DED080B51EC100B04F00CFD4C
:10381000CDE90A019DED0A0B51EC100B04F076FA8C
:1038200041B2E848006841F2C822104400F5E04087
:1038300080F86B156BE0E348006841F2C82108444A
:1038400000F5E14090ED060B8DED060B9DED060BAE
:1038500051EC100B04F005F8CDE90A01D9480068D5
:1038600041F2C821084400F5E04090F96B0507904B
:1038700004F0A9FACDE908019DED0A0B53EC102BD9
:103880009DED080B51EC100B04F05EFB35D2CD48DA
:10389000006841F2C821084400F5E04090F96B054A
:1038A000079004F090FACDE90801C648006841F29B
:1038B000C821084400F5E14090ED060B8DED060BA4
:1038C0009DED060B53EC102B9DED080B51EC100BEE
:1038D00003F0D4FFCDE90A019DED0A0B51EC100B6A
:1038E00004F014FA41B2B748006841F2C82210440B
:1038F00000F5E04080F86B1509E00021B148006850
:1039000041F2C822104400F5E04080F86B15AD4844
:10391000006841F2C821084400F5E14090ED080B31
:103920008DED060B9DED060B53EC102B9FEDA60BBA
:1039300051EC100B03F0A2FFCDE90801A14800688B
:1039400041F2C821084447F24011084490ED080BA9
:103950008DED060B9DED060B53EC102B9DED080B2A
:1039600051EC100B04F02CFBCDE90A019DED0A0B84
:1039700051EC100B04F0CAF941B29248006841F2D0
:10398000C822104400F5E04080F86C158D480068AE
:103990001146084400F5E04090F96C05099004F0E8
:1039A00012FACDE90A018748006841F2C8210844AB
:1039B00000F5E14090ED080B8DED080B9DED080B37
:1039C00053EC102B9DED0A0B51EC100B04F0F6FBA1
:1039D00035D27C48006841F2C821084400F5E04037
:1039E00090F96C05079004F0EEF9CDE908017548EF
:1039F000006841F2C821084400F5E14090ED080B51
:103A00008DED060B9DED060B53EC102B9DED080B79
:103A100051EC100B04F008FCCDE90A019DED0A0BF6
:103A200051EC100B04F072F941B26648006841F2A3
:103A3000C822104400F5E04080F86C156BE0614846
:103A4000006841F2C821084400F5E14090ED080B00
:103A50008DED060B9DED060B51EC100B03F001FFF5
:103A6000CDE90A015748006841F2C821084400F531
:103A7000E04090F96C05079004F0A5F9CDE9080144
:103A80009DED0A0B53EC102B9DED080B51EC100B28
:103A900004F05AFA35D24B48006841F2C821084474
:103AA00000F5E04090F96C05079004F08CF9CDE941
:103AB00008014448006841F2C821084400F5E1408B
:103AC00090ED080B8DED060B9DED060B53EC102BC6
:103AD0009DED080B51EC100B03F0D0FECDE90A016F
:103AE0009DED0A0B51EC100B04F010F941B2354872
:103AF000006841F2C822104400F5E04080F86C15DF
:103B000009E000212F48006841F2C822104400F566
:103B1000E04080F86C152B48006841F2C821084449
:103B200000F5E14090ED0A0B8DED060B9DED060BC7
:103B300053EC102B9FED240B51EC100B03F09EFE69
:103B4000CDE908011F48006841F2C821084447F246
:103B50004011084490ED0A0B8DED060B9DED060B10
:103B600053EC102B9DED080B51EC100B04F028FAD0
:103B7000CDE90A019DED0A0B51EC100B04F0C6F8DB
:103B800041B21048006841F2C822104400F5E040FC
:103B900080F86D150B4800681146084400F5E040B8
:103BA00090F96D05099004F00EF9CDE90A01054878
:103BB000006841F2C821084400F5E14090ED0A0B8D
:103BC00006E0000000000020000000000000594056
:103BD0008DED080B9DED080B53EC102B9DED0A0BA2
:103BE00051EC100B04F0EAFA35D2FE48006841F2BD
:103BF000C821084400F5E04090F96D05079004F0F5
:103C0000E2F8CDE90801F748006841F2C82108440C
:103C100000F5E14090ED0A0B8DED060B9DED060BD6
:103C200053EC102B9DED080B51EC100B04F0FCFA3B
:103C3000CDE90A019DED0A0B51EC100B04F066F87A
:103C400041B2E848006841F2C822104400F5E04063
:103C500080F86D156BE0E348006841F2C821084424
:103C600000F5E14090ED0A0B8DED060B9DED060B86
:103C700051EC100B03F0F5FDCDE90A01D9480068BD
:103C800041F2C821084400F5E04090F96D05079025
:103C900004F099F8CDE908019DED0A0B53EC102BC7
:103CA0009DED080B51EC100B04F04EF935D2CD48C8
:103CB000006841F2C821084400F5E04090F96D0524
:103CC000079004F080F8CDE90801C648006841F289
:103CD000C821084400F5E14090ED0A0B8DED060B7C
:103CE0009DED060B53EC102B9DED080B51EC100BCA
:103CF00003F0C4FDCDE90A019DED0A0B51EC100B58
:103D000004F004F841B2B748006841F2C8221044F8
:103D100000F5E04080F86D1509E00021B148006829
:103D200041F2C822104400F5E04080F86D15AD481E
:103D3000006841F2C821084447F24011084490ED60
:103D4000100B8DED060B9DED060B53EC102B9FED2C
:103D5000A60B51EC100B03F091FD9FEDA50B53EC5E
:103D6000102BCDE908019DED080B51EC100B04F070
:103D700027F9CDE90A019DED0A0B51EC100B03F078
:103D8000C5FF41B29748006841F2C822104400F5CF
:103D9000E04080F86E15934800681146084447F2E9
:103DA0004011084490ED120B8DED060B9DED060BB6
:103DB00053EC102B9FED8C0B51EC100B03F05EFDC0
:103DC0009FED8B0B53EC102BCDE908019DED080BFB
:103DD00051EC100B04F0F4F8CDE90A019DED0A0B4B
:103DE00051EC100B03F092FF41B27E48006841F2A3
:103DF000C822104400F5E04080F86F15794800684B
:103E00001146084447F24011084490ED140B8DED23
:103E1000060B9DED060B53EC102B9FED730B51EC35
:103E2000100B03F02BFD9FED720B53EC102BCDE923
:103E300008019DED080B51EC100B04F0C1F8CDE921
:103E40000A019DED0A0B51EC100B03F05FFF41B22C
:103E50006448006841F2C822104400F5E04080F850
:103E60007015604800681146084447F24011084444
:103E700090ED160B8DED060B9DED060B53EC102B04
:103E80009FED590B51EC100B03F0F8FC9FED580B14
:103E900053EC102BCDE908019DED080B51EC100BF4
:103EA00004F08EF8CDE90A019DED0A0B51EC100BE0
:103EB00003F02CFF41B24B48006841F2C822104485
:103EC00000F5E04080F87115464800681146084446
:103ED00047F24011084490ED180B8DED060B9DED57
:103EE000060B53EC102B9FED400B51EC100B03F025
:103EF000C5FC9FED3F0B53EC102BCDE908019DED68
:103F0000080B51EC100B04F05BF8CDE90A019DEDB4
:103F10000A0B51EC100B03F0F9FE41B23148006876
:103F200041F2C822104400F5E04080F872152D4897
:103F300000681146084447F24011084490ED1A0BFE
:103F40008DED060B9DED060B53EC102B9FED260B14
:103F500051EC100B03F092FC9FED250B53EC102B52
:103F6000CDE908019DED080B51EC100B04F028F889
:103F7000CDE90A019DED0A0B51EC100B03F0C6FED2
:103F800041B21848006841F2C822104400F5E040F0
:103F900080F87315134800681146084447F2401131
:103FA000084490ED0C0B8DED080B9DED080B53ECC8
:103FB000102B9FED0D0B51EC100B03F05FFC9FEDF0
:103FC0000C0B53EC102BCDE90A019DED0A0B51ECC3
:103FD000100B03F0F5FF0A4601460248006841F263
:103FE000C82309E000000020000000000000F03FAE
:103FF0000000000000004940184400F5E84000F5CA
:10400000987006C0FD4800681946084400F5E14074
:1040100090ED280B8DED080B9DED080B53EC102B4C
:104020009FEDF70B51EC100B03F028FCCDE90A01D2
:10403000F248006841F2C821084447F240110844A0
:1040400090ED280B8DED080B9DED080B53EC102B1C
:104050009DED0A0B51EC100B03F0B2FF0A4601462E
:10406000E648006841F2C823184400F5E84000F52E
:10407000A07006C0E14800681946084400F5E14018
:1040800090ED280B8DED0A0BDC480068084400F524
:10409000E84090ED500B8DED080B9DED0A0B53ECB5
:1040A000102B9DED080B51EC100B04F087F82AD271
:1040B000D248006841F2C821084400F5E14090ED83
:1040C000280B8DED0A0BCD480068084400F5E84048
:1040D00090ED500B8DED080B9DED0A0B53EC102B62
:1040E0009DED080B51EC100B04F09EF80A460146BA
:1040F000C248006841F2C823184400F5E84000F5C2
:10410000A07006C05EE0BD48006841F2C8210844C6
:1041100000F5E14090ED280B8DED080B9DED080BAF
:1041200051EC100B03F09DFBCDE90A01B348006888
:1041300041F2C821084400F5E84090ED500B8DEDA8
:10414000080B9DED080B53EC102B9DED0A0B51EC69
:10415000100B04F033F82AD2A848006841F2C821B5
:10416000084400F5E14090ED280B8DED0A0BA348C3
:104170000068084400F5E84090ED500B8DED080B09
:104180009DED0A0B53EC102B9DED080B51EC100B21
:1041900003F074FB0A4601469848006841F2C823C0
:1041A000184400F5E84000F5A07006C00AE09FED55
:1041B000960B9248006841F2C821084400F5E84097
:1041C00080ED500B8D48006841F2C821084400F58D
:1041D000E14090ED260B8DED080B9DED080B53ECA7
:1041E000102B9FED870B51EC100B03F047FBCDE933
:1041F0000A018248006841F2C821084447F2401190
:10420000084490ED260B8DED080B9DED080B53EC4B
:10421000102B9DED0A0B51EC100B03F0D1FE0A465A
:1042200001467648006841F2C823184400F5E8408A
:1042300000F5A47006C0714800681946084400F5EE
:10424000E14090ED260B8DED0A0B6C4800680844A8
:1042500000F5E84090ED520B8DED080B9DED0A0B3B
:1042600053EC102B9DED080B51EC100B03F0A6FF47
:104270002AD26248006841F2C821084400F5E140B2
:1042800090ED260B8DED0A0B5C480068084400F5A4
:10429000E84090ED520B8DED080B9DED0A0B53ECB1
:1042A000102B9DED080B51EC100B03F0BDFF0A46DF
:1042B00001465248006841F2C823184400F5E8401E
:1042C00000F5A47006C05EE04C48006841F2C821C9
:1042D000084400F5E14090ED260B8DED080B9DEDB7
:1042E000080B51EC100B03F0BCFACDE90A0143486E
:1042F000006841F2C821084400F5E84090ED520BF7
:104300008DED080B9DED080B53EC102B9DED0A0B6A
:1043100051EC100B03F052FF2AD23848006841F2EA
:10432000C821084400F5E14090ED260B8DED0A0B05
:1043300032480068084400F5E84090ED520B8DEDDE
:10434000080B9DED0A0B53EC102B9DED080B51EC67
:10435000100B03F093FA0A4601462848006841F220
:10436000C823184400F5E84000F5A47006C00AE030
:104370009FED250B2148006841F2C821084400F553
:10438000E84080ED520B1D48006841F2C821084406
:1043900047F24011084490ED2C0B8DED080B9DED7C
:1043A000080B53EC102B9FED160B51EC100B03F088
:1043B00007FECDE90A011148006841F2C82108440E
:1043C00000F5E84090ED520B8DED080B9DED080BCC
:1043D00053EC102B9DED0A0B51EC100B03F024FF56
:1043E000CDE916019FED060B53EC102B9DED160B3E
:1043F00051EC100B03F0E2FE0FD209E000000020A8
:104400000000000000005940000000000000000013
:104410001FED050B8DED160B0EE09FEDFE0B53EC23
:10442000102B9DED160B51EC100B03F08DFD03D2FC
:104430009FEDF80B8DED160BF848006841F2C8218E
:10444000084447F24011084490ED2E0B8DED080B07
:104450009DED080B53EC102B1FED170B51EC100BBF
:1044600003F0AEFDCDE90A01EC48006841F2C82135
:10447000084400F5E84090ED500B8DED080B9DEDE4
:10448000080B53EC102B9DED0A0B51EC100B03F0B5
:10449000CBFECDE914011FED260B53EC102B9DED47
:1044A000140B51EC100B03F089FE04D21FED2C0B02
:1044B0008DED140B0EE09FEDD70B53EC102B9DED03
:1044C000140B51EC100B03F03FFD03D29FEDD10B09
:1044D0008DED140BD148006841F2C821084447F221
:1044E0004011084490ED1C0B8DED0A0B9DED0A0B5D
:1044F00053EC102B1FED3E0B51EC100B03F060FD45
:10450000CDE91201C548006841F2C821084447F2CC
:104510004011084490ED1E0B8DED0A0B9DED0A0B2A
:1045200053EC102B1FED4A0B51EC100B03F048FD20
:10453000CDE91001B948006841F2C821084447F2AA
:104540004011084490ED0E0B8DED0A0B9DED0A0B0A
:1045500053EC102B1FED560B51EC100B03F030FDFC
:10456000CDE90E019FEDAE0B8DED0C0B6FF05E00F3
:104570000B90A4E10B9803F026FCCDE906019DED1C
:104580000C0B53EC102B9DED060B51EC100B03F0B4
:104590004BFECDE908019DED140B53EC102B9DED66
:1045A000080B51EC100B03F0CFFC2AD80B9803F04A
:1045B0000AFCCDE906019DED0C0B53EC102B9DED93
:1045C000060B51EC100B03F059F9CDE908019DEDF4
:1045D000140B53EC102B9DED080B51EC100B03F05A
:1045E000EDFD0ED80B9803F0EEFB0A4601468B4812
:1045F000006841F2C823184400F5E84000F58070D7
:1046000006C00B9803F0DFFBCDE906019DED0C0B16
:1046100053EC102B9DED060B51EC100B03F004FE38
:10462000CDE908019DED160B53EC102B9DED080B09
:1046300051EC100B03F088FC29D80B9803F0C3FB56
:10464000CDE906019DED0C0B53EC102B9DED060BF7
:1046500051EC100B03F012F9CDE908019DED160B9A
:1046600053EC102B9DED080B51EC100B03F0A6FD45
:104670000DD80B9803F0A7FB0A460146674800686F
:1046800041F2C823184400F5EA40C0E902120B9831
:1046900003F099FBCDE906019DED0C0B53EC102BBB
:1046A0009DED060B51EC100B03F0BEFDCDE90801AA
:1046B0009DED120B53EC102B9DED080B51EC100BE4
:1046C00003F042FC2AD80B9803F07DFBCDE90601EC
:1046D0009DED0C0B53EC102B9DED060B51EC100BCC
:1046E00003F0CCF8CDE908019DED120B53EC102B33
:1046F0009DED080B51EC100B03F060FD0ED80B98EC
:1047000003F061FB0A4601464448006841F2C823B1
:10471000184400F5E84000F5887006C00B9803F0D7
:1047200052FBCDE906019DED0C0B53EC102B9DEDDA
:10473000060B51EC100B03F077FDCDE908019DED60
:10474000100B53EC102B9DED080B51EC100B03F0EC
:10475000FBFB28D80B9803F036FBCDE906019DED55
:104760000C0B53EC102B9DED060B51EC100B03F0D2
:1047700085F8CDE908019DED100B53EC102B9DED54
:10478000080B51EC100B03F019FD0CD80B9803F03B
:104790001AFB224A126841F2C8231A4447F2105306
:1047A0001A44C2E902011D48006841F2C8210844C8
:1047B00000F5E84090ED480B18480068084400F503
:1047C000E84080ED4A0B0B9803F0FDFACDE90601B5
:1047D0009DED0C0B53EC102B9DED060B51EC100BCB
:1047E00003F022FDCDE908019DED0E0B53EC102BDB
:1047F0009DED080B51EC100B03F0A6FB36D80B987F
:1048000003F0E1FACDE906019DED0C0B53EC102B02
:104810000AE0000000000000000059C00000002075
:1048200000000000000000409DED060B51EC100B55
:1048300003F024F8CDE908019DED0E0B53EC102B8D
:104840009DED080B51EC100B03F0B8FC0ED80B9843
:1048500003F0B9FA0A460146FE48006841F2C8234F
:10486000184400F5E84000F5907006C0F94801686A
:1048700041F2C820084400F5E84090ED4A0B8DED68
:10488000080BF448006841F2C821084400F5E840EC
:1048900090ED480B8DED060B9DED080B53EC102BA6
:1048A0009DED060B51EC100B03F0F4F904D001213F
:1048B000E848006880F8E81A0B980A300B900B98CB
:1048C0005F287FF757AE9DED160BE248006841F276
:1048D000C821084400F5E84080ED400B9DED140B25
:1048E000DC480068084400F5EA4080ED020B9DEDCD
:1048F000120BD8480068084400F5E84080ED440BEE
:104900009DED100BD3480068084447F2105108444D
:1049100080ED020BCF48006841F2C821084447F2FD
:104920004011084490ED200B8DED080B9DED080B18
:1049300053EC102B9FEDC80B51EC100B02F09EFFB7
:104940009FEDC70B53EC102BCDE90A019DED0A0B2F
:1049500051EC100B03F034FB0A460146BD480068D9
:1049600041F2C823184400F5E84000F5AC7006C0D9
:10497000B84800681946084447F24011084490EDD1
:10498000220B8DED080B9DED080B53EC102B9FEDCA
:10499000B20B51EC100B02F071FF9FEDB10B53EC19
:1049A000102BCDE90A019DED0A0B51EC100B03F021
:1049B00007FB0A460146A748006841F2C82318448D
:1049C00000F5E84000F5B07006C0A248006819463E
:1049D000084400F5E14090ED2A0B8DED080B9DEDAC
:1049E000080B53EC102B9FEDA00B51EC100B02F0B9
:1049F00045FFCDE90A019748006841F2C821084403
:104A000047F24011084490ED2A0B8DED080B9DED07
:104A1000080B53EC102B9DED0A0B51EC100B03F01F
:104A2000CFFA0A4601468B48006841F2C823184471
:104A300000F5E84000F59C7006C0864800681946FD
:104A4000084400F5E14090ED2A0B8DED0A0B8148FA
:104A50000068084400F5E84090ED4E0B8DED080B22
:104A60009DED0A0B53EC102B9DED080B51EC100B38
:104A700003F0A4FB2AD27748006841F2C821084419
:104A800000F5E14090ED2A0B8DED0A0B71480068AE
:104A9000084400F5E84090ED4E0B8DED080B9DEDC0
:104AA0000A0B53EC102B9DED080B51EC100B03F08F
:104AB000BBFB0A4601466748006841F2C823184418
:104AC00000F5E84000F59C7006C05EE061480068B3
:104AD00041F2C821084400F5E14090ED2A0B8DED2C
:104AE000080B9DED080B51EC100B02F0BAFECDE95E
:104AF0000A015848006841F2C821084400F5E8401E
:104B000090ED4E0B8DED080B9DED080B53EC102B2B
:104B10009DED0A0B51EC100B03F050FB2AD24D48CF
:104B2000006841F2C821084400F5E14090ED2A0BED
:104B30008DED0A0B47480068084400F5E84090ED09
:104B40004E0B8DED080B9DED0A0B53EC102B9DEDDC
:104B5000080B51EC100B02F091FE0A4601463D484D
:104B6000006841F2C823184400F5E84000F59C7045
:104B700006C00AE09FED3E0B3648006841F2C821AE
:104B8000084400F5E84080ED4E0B3248006841F2E1
:104B9000C821084400F5E84090ED560B8DED0A0B56
:104BA0002C480068084400F5E84090ED4E0B8DED70
:104BB000080B9DED0A0B53EC102B9DED080B51ECEF
:104BC000100B03F0FDF90A4601462248006841F245
:104BD000C823184400F5E84000F59C7006C01D4845
:104BE00000681946084400F5E14090ED240B8DED76
:104BF000080B9DED080B53EC102B9FED1B0B51EC9C
:104C0000100B02F03BFECDE90A011248006841F2A8
:104C1000C821084447F24011084490ED240B8DED63
:104C2000080B9DED080B53EC102B9DED0A0B51EC7E
:104C3000100B03F0C5F90A4601460648006841F228
:104C4000C823184400F5E84000F5A87006C00148E4
:104C5000006811E000000020000000000000F03FAC
:104C6000000000000000E03F00000000000059408C
:104C700000000000000000001946084400F5E14073
:104C800090ED240B8DED0A0BE8480068084400F510
:104C9000E84090ED540B8DED080B9DED0A0B53ECA5
:104CA000102B9DED080B51EC100B03F087FA2AD264
:104CB000DE48006841F2C821084400F5E14090ED6B
:104CC000240B8DED0A0BD9480068084400F5E84034
:104CD00090ED540B8DED080B9DED0A0B53EC102B52
:104CE0009DED080B51EC100B03F09EFA0A460146AD
:104CF000CE48006841F2C823184400F5E84000F5AA
:104D0000A87006C05EE0C948006841F2C8210844A6
:104D100000F5E14090ED240B8DED080B9DED080BA7
:104D200051EC100B02F09DFDCDE90A01BF4800686F
:104D300041F2C821084400F5E84090ED540B8DED98
:104D4000080B9DED080B53EC102B9DED0A0B51EC5D
:104D5000100B03F033FA2AD2B448006841F2C8219C
:104D6000084400F5E14090ED240B8DED0A0BAF48AF
:104D70000068084400F5E84090ED540B8DED080BF9
:104D80009DED0A0B53EC102B9DED080B51EC100B15
:104D900002F074FD0A460146A448006841F2C823A7
:104DA000184400F5E84000F5A87006C00AE01FEDC1
:104DB000500B9E48006841F2C821084400F5E840C5
:104DC00080ED540B9948006841F2C821084400F571
:104DD000E84090ED580B8DED0A0B944800680844AC
:104DE00000F5E84090ED540B8DED080B9DED0A0B9E
:104DF00053EC102B9DED080B51EC100B03F0E0F879
:104E00000A4601468948006841F2C823184400F563
:104E1000E84000F5A87006C08448006819460844B8
:104E200000F5E04090F86805404241B27F480068D4
:104E30001A46104400F5E04080F868157B48006889
:104E40001146084400F5E04090F86B05404241B23D
:104E500076480068104400F5E04080F86B15734810
:104E600000681146084400F5E84090ED4E0B8DEDCA
:104E70000A0B9FED6F0B53EC102B9DED0A0B51ECC1
:104E8000100B03F09DF80A4601466848006841F29D
:104E9000C823184400F5E84000F59C7006C063483C
:104EA00000681946084400F5E04090F96F05C0F12C
:104EB000640041B25D4800681A46104400F5E040C5
:104EC00080F86F15594800681146084400F5E04025
:104ED00090F97005C0F1640041B254480068104474
:104EE00000F5E04080F8701550480068114608440D
:104EF00000F5E04090F97105C0F1640041B24B4803
:104F00000068104400F5E04080F8711547480068DB
:104F10001146084400F5E04090F97205C0F16400C4
:104F200041B242480068104400F5E04080F8721534
:104F30003E4800681146084400F5E84090ED400BFB
:104F40008DED0A0B9FED3A0B53EC102B9DED0A0BE8
:104F500051EC100B03F034F80A4601463348006860
:104F600041F2C823184400F5E84000F5807006C0FF
:104F70002E4800681946084400F5EA4090ED020BFF
:104F80008DED0A0B9FED2A0B53EC102B9DED0A0BB8
:104F900051EC100B03F014F8244A126841F2C823B4
:104FA0001A4402F5EA42C2E90201204800681946A3
:104FB000084400F5E84090ED440B8DED0A0B9FEDA1
:104FC0001C0B53EC102B9DED0A0B51EC100B02F057
:104FD000F7FF0A4601461548006841F2C823184405
:104FE00000F5E84000F5887006C0104800681946D2
:104FF000084447F21051084490ED020B8DED0A0B66
:105000009FED0B0B53EC102B9DED0A0B51EC100B8D
:1050100002F0D6FF054A126841F2C8231A4447F24B
:1050200010531A44C2E9020133B000BD0000002051
:10503000000000000000F0BF2D48006840F47F40F1
:105040002B4908602B48006840F4706029490860CB
:105050002948006840F00F00274908602748284980
:1050600008602848006841F2C82108442449091D05
:1050700008604FF496502249091F0860081F006815
:1050800042F6015108431E49083908601B484C3854
:10509000806840F20331084318494C39886008465B
:1050A000406840F48070486008460069164908432B
:1050B00012494C3908610846C06840F47C30C86029
:1050C0000846C06A40F4E000C8620846406B0F49D9
:1050D00008430A494C3948630846006B40F0850094
:1050E00008630846806840F0804088607047000090
:1050F0000000024000080240000402404C20014031
:10510000186402400000002000F0FF3F093D770CCA
:105110003348006840F0FF003149086031480068BA
:1051200040F0FF002F4908602F48304908603048A0
:10513000006841F2C821084400F516502B49091DAA
:1051400008604FF496502949091F0860081F00683D
:10515000284908432549083908602348443800682D
:1051600040F2033108432449C1F808010846D0F849
:10517000040140F48070C1F804011B483C38006809
:1051800040F6FF7108431C49C1F810011648403829
:10519000006840F6FF7108431749C1F80C01084642
:1051A000D0F82C0140F4E000C1F82C010E4818386A
:1051B0000068124908431049C1F834010A481C38F4
:1051C000006840F24B1108430B49C1F83001084612
:1051D000D0F8080140F08040C1F808017047000095
:1051E00000000240000802404C210140606402407F
:1051F00000000020012D0002002001404304D018CF
:105200002E4800682E4908432C4908602D482E4935
:1052100008602E48006841F2C821084400F5964015
:105220002949091D08604FF496502749091F086055
:10523000081F0068264908432349083908602148A7
:105240004438006840F2033108432249C1F808029B
:105250000846D0F8040240F48070C1F804021948EE
:105260003C3800681C4908431A49C1F81002084636
:10527000D0F80C0240F47C30C1F80C020846D0F89B
:105280002C0240F4E000C1F82C020E4818380068E7
:10529000124908430F49C1F834020A481C38006813
:1052A00040F2071108430B49C1F830020846D0F814
:1052B000080240F08040C1F8080270470014024024
:1052C000C0FF3F004C22014030640240000000203B
:1052D000012D00040020014000F0FF3FC93D520CA9
:1052E00010B500F009F800F063F9FFF7A5FEFFF72D
:1052F0000FFFFFF785FF10BD9C48006840F0AA50E3
:105300009A490860081D006840F4F040091D0860D3
:105310009748006840F05500954908600846406885
:1053200040F00F0048609348006840F0A840914961
:105330000860081D006840F46040091D08608E4840
:10534000006840F4AA608C4908600846406840F054
:105350003C0048608948006840F480408749086004
:10536000081D006840F08000091D08607F48006843
:1053700040F4A0107D490860081D006840F4C0603A
:10538000091D086079481430006840F4805077495E
:10539000143108600846006840F400500860084670
:1053A000006840F4804008607148406940F00200A5
:1053B0006F4948616F481430006840F400406D49FF
:1053C000143108600846006840F4005008606848DE
:1053D000406940F00400664948610846406940F071
:1053E0000100486163481430006840F4804061491E
:1053F000143108605E48406940F008005C4948612B
:105400005A481430006840F400605849143108606C
:105410005A481430006840F0800058491431086040
:1054200052481430006840F48060504914310860DC
:105430005148406940F010004F49486108464069B2
:1054400040F0040048610846406940F0200048618F
:105450000846406940F0080048614448143000683C
:1054600040F400704149143108604448006840F03D
:10547000807042490860081D006840F48050091D92
:1054800008603E481430006840F480503B491431B5
:1054900008603B4800683B49084039490860384883
:1054A0000C3000683849084335490C3108603748EA
:1054B000006820F07C403549086034480C300068B2
:1054C00040F0A84031490C3108602C48006820F0B9
:1054D00040402A49086029480C30006840F080406C
:1054E00026490C3108602448006800F47F60224996
:1054F00008600846C068264908431F49C860254817
:10550000006820F07C402349086022480C30006885
:1055100040F0A8401F490C310860144800681E493B
:1055200008401249086011480C3000681B490843C4
:105530000E490C3108600F480068194908400D49B0
:1055400008600C480C3000681649084309490C31C2
:105550000860074800681449084005490860084683
:10556000C068124908430249C860704700180240E9
:1055700000200240001C024000100240000C0240CB
:10558000000402403F00F0FF4055050000080240C3
:1055900005505555001402400000FC3F5555014090
:1055A000FF0F00FF00505500FFF000FF0005550001
:1055B00010B540F247302449086040F2E730091D39
:1055C000086021481C38006840F001001E491C3961
:1055D00008601D482838006840F001001A49283941
:1055E00008601D2001F065FE40F247301749086051
:1055F00041F28730091D086014481C38006840F0EB
:10560000010012491C39086010482838006840F031
:1056100001000E4928390860372001F04AFE40F2A7
:1056200047300B49086040F6B730091D086008484C
:105630001C38006840F0010005491C3908601E2034
:1056400001F037FE10BD000028040040281400407F
:10565000280800400246002002E000231354401CAA
:105660008842FAD3704700008F49096801F10C00A5
:105670008D49096841F2C822114401F5E04191F8D1
:105680002216012902D180F8F8110CE18649096837
:1056900041F2C822114401F5E04191F82316012995
:1056A00003D1022180F8F811FDE07F49096841F239
:1056B000C822114401F5E04191F8A315012903D155
:1056C000052180F8F811EEE07749096841F2C82217
:1056D000114401F5E04191F8A415012903D10621F7
:1056E00080F8F811DFE07049096841F2C8221144DE
:1056F00001F5E04191F8A515012903D1072180F8B2
:10570000F811D0E06849096841F2C822114401F556
:10571000E04191F8A615012903D1082180F8F8117C
:10572000C1E06149096841F2C822114401F5E04134
:1057300091F8BE15012903D1032180F8F811B2E0D8
:105740005949096841F2C822114401F5E04191F834
:10575000BF15012903D1042180F8F811A3E05249B3
:10576000096841F2C822114401F5E04191F8C015E1
:10577000012903D1092180F8F81194E04A49096808
:1057800041F2C822114401F5E04191F8C115012907
:1057900003D10A2180F8F81185E04349096841F2F4
:1057A000C822114401F5E04191F8C215012903D145
:1057B0000B2180F8F81176E03B49096841F2C822D4
:1057C000114401F5E04191F8C315012903D11021DD
:1057D00080F8F81167E03449096841F2C8221144A1
:1057E00001F5E04191F8C415012903D1112180F898
:1057F000F81158E02C49096841F2C822114401F51A
:10580000E04191F8C515012903D1122180F8F81162
:1058100049E02549096841F2C822114401F5E041F7
:1058200091F8C615012903D1132180F8F8113AE047
:105830001D49096841F2C822114401F5E04191F87F
:10584000C915012903D11B2180F8F8112BE0164955
:10585000096841F2C822114401F5E04191F8CA15E6
:10586000012903D11C2180F8F8111CE00E490968B8
:1058700041F2C822114401F5E04191F85C1601297A
:1058800003D11D2180F8F8110DE00749096841F2A4
:10589000C822114401F5E04191F85D16012902D1B9
:1058A0001E2180F8F8117047000000202E49096879
:1058B00001F6E8302C49096841F2C822114401F58B
:1058C000E04191F83416012903D1092180F8F8113B
:1058D00049E02549096841F2C822114401F5E04137
:1058E00091F83516012903D10A2180F8F8113AE020
:1058F0001D49096841F2C822114401F5E04191F8BF
:105900003616012903D10B2180F8F8112BE0164936
:10591000096841F2C822114401F5E04191F83716B7
:10592000012903D10D2180F8F8111CE00E49096806
:1059300041F2C822114401F5E04191F8B81501295E
:1059400003D1072180F8F8110DE00749096841F2F9
:10595000C822114401F5E04191F8B915012902D19D
:10596000082180F8F8117047000000207849096884
:1059700001F206207649096841F2C822114401F576
:10598000E04191F87415012903D1042180F8F81140
:10599000DCE06F49096841F2C822114401F5E04199
:1059A00091F87515012903D1062180F8F811CDE091
:1059B0006749096841F2C822114401F5E04191F8B4
:1059C0007615012903D1052180F8F811BEE0604960
:1059D000096841F2C822114401F5E04191F87B15B4
:1059E000012903D1032180F8F811AFE05849096873
:1059F00041F2C822114401F5E04191F8BA1501299C
:105A000003D1072180F8F811A0E05149096841F25B
:105A1000C822114401F5E04191F8BB15012903D1D9
:105A2000082180F8F81191E04949096841F2C8223B
:105A3000114401F5E04191F8BC15012903D1092178
:105A400080F8F81182E04249096841F2C822114405
:105A500001F5E04191F8BD15012903D10A2180F833
:105A6000F81173E03A49096841F2C822114401F57E
:105A7000E04191F8C815012903D10C2180F8F811F3
:105A800064E03349096841F2C822114401F5E0415C
:105A900091F8CB15012903D1112180F8F81155E0B7
:105AA0002B49096841F2C822114401F5E04191F8FF
:105AB000CC15012903D1122180F8F81146E02449C0
:105AC000096841F2C822114401F5E04191F87715C7
:105AD000012906D10B2180F8F811002180F8F91175
